:100000000C9463000C948B000C948B000C948B006C
:100010000C948B000C948B000C948B000C948B0034
:100020000C948B000C948B000C948B000C948B0024
:100030000C948B000C948B000C948B000C948B0014
:100040000C946B1D0C948B000C94391D0C94131D97
:100050000C948B000C948B000C948B000C948B00F4
:100060000C94B51D0C948B000000000024002700A8
:100070002A0000000000250028002B0000000000DE
:1000800023002600290004040404040404040202DA
:100090000202020203030303030301020408102007
:1000A0004080010204081020010204081020000012
:1000B0000008000201000003040700000000000027
:1000C0000000D41E5B2811241FBECFEFD8E0DEBF96
:1000D000CDBF23E0A0E8B1E001C01D92AA3DB20768
:1000E000E1F711E0A0E0B1E0ECEEFAE502C0059026
:1000F0000D92A038B107D9F710E0C2E6D0E004C0F5
:100100002197FE010E94342BC136D107C9F70E9406
:10011000671F0C94692D0C9400008091F60190915A
:10012000F701891B990B08952F923F924F925F928E
:100130006F927F928F929F92AF92BF92CF92DF92F7
:10014000EF92FF920F931F93CF93DF93CDB7DEB75C
:10015000AA970FB6F894DEBF0FBECDBF0D871D8BDB
:10016000298F3A8F4B8F5C8F6F8F7BA3FE8EED8E26
:10017000E0918203F0918303892B21F0E0918403C5
:10018000F0918503FF27EE0FFF1FEE0FFF1FEA57C9
:10019000FC4F608171818281938124E630E040E0F0
:1001A00050E00E94122A522E632E742E852E962E17
:1001B0007A8B898B492E86017501110FEE08FE2C72
:1001C00087019501A6016E2D7E2D8E2D9E2D0FE1AE
:1001D0000E94DD2AA12CEAECBE2EFAE9CF2EABE379
:1001E000DA2EE12CF12C00E010E00E943F2AA52C31
:1001F000B62CC72CD82CE92CFA880989142D0E941A
:10020000BA290FE10E94F82A29833A834B835C8341
:100210006D837E838F83988729813A814B815C81AE
:10022000550F220B322FA90129873A874B875C870C
:10023000252D362D472D582D692D7F2D8989942DFB
:10024000A980BA80CB80DC80E984FE2C0E2D1E2D87
:100250000E94132B29833987498B5A8B6B8B7C8B9C
:100260001C016D847D88898C9A8C3C8D3D8B4F8CD4
:100270005BA09301A4016B8D7D89C20121153440DF
:100280004B46544F644171058105910569F060F05A
:10029000612C24E0722E3BE6832E44EF942EB4E1D1
:1002A000BB8F1D8A412C512CEB8DEF8F9301A40144
:1002B0006E2F7D89C201211538454744584F6D4046
:1002C00071058105910560F4612C08E5702E87E4C5
:1002D000882E98EF992E2DE02F8F1D8A412C512CBE
:1002E000A980B984C988DA88EB88FC8881019301E8
:1002F000A4016F8D7D89C2010E94702A298F3A8FD7
:100300004B8F5C8F2D873E874F87588B8D859E85C1
:10031000AF85B8891FE0A12E0F97A105B10558F050
:100320002D853E854F8558892B3531054105510571
:10033000B8F0BAE5AB2EB12CC12CD12CE12CF12CAC
:1003400000E010E02981398549895A896B897C89C7
:10035000C1010E94BA2939014A016F8F7D8B2C019E
:10036000A980B984C988DA88EB88FC888101930167
:10037000A4016F8D7D89C2010E946E2AE0E4AE2E39
:10038000F2E4BF2EAFE0CA2ED12CE12CF12C00E01C
:1003900010E00E94BA29A980B984C988DA88EB885C
:1003A000FC8881010E94702A49014CA35BA3C9010A
:1003B000DA0121E030E040E050E00097A105B1050E
:1003C00021F020E432E44FE050E02D8B3E8B4F8B48
:1003D000588FBC01CD0127E0660F771F881F991F3A
:1003E0002A95D1F72D893E894F89588D0E94792908
:1003F00029013A016F8F78A389A39AA3A980B984B0
:10040000C988DA88EB88FC88810194014CA15BA142
:1004100060E070E080E090E00E94BA292BA33CA34A
:100420004DA35EA36FA378A789A79AA78D859E8504
:10043000AF85B88937E0880F991FAA1FBB1F3A956F
:10044000D1F79250A109B109840D951DA61DB71DC4
:10045000ED8DFE8D80839183A283B3832F8D38A190
:1004600049A15AA124833583468357832D893E8928
:100470004F89588D2087318742875387298D3A8D40
:100480004B8D5C8D60E070E080E090E00E94BA29C6
:1004900029013A014B01898799838D899E89AF890A
:1004A000B88D5C016D01E12CF12C00E010E02BA176
:1004B0003CA14DA15EA16FA178A589A59AA50E9436
:1004C000702A59016A017B018C019201A301B401D8
:1004D000898599810E94132BAA960FB6F894DEBFE6
:1004E0000FBECDBFDF91CF911F910F91FF90EF9085
:1004F000DF90CF90BF90AF909F908F907F906F9044
:100500005F904F903F902F9008952F923F924F927F
:100510005F926F927F928F929F92AF92BF92CF9293
:10052000DF92EF92FF920F931F93CF93DF93CDB79C
:10053000DEB765970FB6F894DEBF0FBECDBF2D8333
:100540003E834F83588769877A878B879C87A982E8
:10055000BF86C88AD98AEA8AFB8A0C8B1D8B9E8645
:100560008D86211506ED300701E140070EE75007A3
:1005700003E0600771058105910511F008F009C1DC
:100580002F37304F4A4F5240610571058105910563
:1005900009F008F469C19501A601B7018C899D890C
:1005A000A0E00E94282B09F00DC1AD80BE80CF8055
:1005B000D884E984FA840B851C8520E033E245E782
:1005C0005EEE64E170E080E090E00E94702AC90174
:1005D000DA01A901BD0120FF99C04F5F5F4F6F4F46
:1005E0007F4F49835A836B837C834F3F510561055D
:1005F000710540F08EEF90E0A0E0B0E089839A832F
:10060000AB83BC83E980FA800B811C81A801970130
:10061000AD80BE80CF80D884E984FA840B851C85A8
:1006200060E070E080E090E00E94BA2929013A0180
:100630004B011C01211504E030070BE6400704EFD5
:10064000500704E1600771058105910509F008F480
:100650007DC089819A81AB81BC810297A109B109D2
:1006600089839A83AB83BC831C012D010B85910187
:10067000A20160E070E080E090E00E94BA292901C8
:100680003A014B011C0189819A81AB81BC81992778
:10069000AA27BB27ED85FE8580839183A283B38340
:1006A000148215821682178210861186128613868E
:1006B0009201A301B401C10165960FB6F894DEBFA3
:1006C0000FBECDBFDF91CF911F910F91FF90EF90A3
:1006D000DF90CF90BF90AF909F908F907F906F9062
:1006E0005F904F903F902F90089545E050E060E07C
:1006F00070E01D8286ED8E8391E19F83AEE7A8872F
:10070000B3E0B9871A861B861C8667CF0597A105BB
:10071000B10509F066CF16E0E12EF12C00E010E003
:10072000E982FA820B831C836DCF46E057E060E0DC
:1007300070E0E0E8ED83F0EFFE830AEF0F8312E054
:10074000188719861A861B861C864BCF2F3F374584
:100750004744584F6D4071058105910511F008F02F
:1007600092CF89819A81AB81BC810296A11DB11D76
:1007700089839A83AB83BC831C012D01AD80BE802D
:10078000CF80D884E984FA840B851C8570CF412CF6
:1007900063C029813F85488959896A897B898C8909
:1007A0009D89A0E00E94282B09F49FCF1D82B6ED01
:1007B000BE83E1E1EF83FEE7F88703E009871A864D
:1007C0001B861C86AD80BE80CF80D884E984FA84E5
:1007D0000B851C8529813F85488959896A897B89D0
:1007E0008C899D890E946E2A29013A014B011C01C6
:1007F000A0E00E94282B59F629813F854889598914
:100800006A897B898C899D890E94702A022F132F07
:10081000242F352FD901C8010697A109B109893FB5
:100820009105A105B10508F043CF10E030E020E0CC
:10083000AD85BE850D931D932D933C931397FD01BC
:10084000148215821682178218961D921D921D928F
:100850001C921B9744244394512C612C712C812CA5
:10086000912C212C312C24CF29813F85488959890D
:100870006A897B898C899D89A0E00E94282B09F4D4
:1008800054CF10E81D8380EF8E839AEF9F83A2E000
:10089000A887198694CFDF92EF92FF920F931F9350
:1008A000CF93DF93FC01E080F18002811381D4813A
:1008B000C581B681D7809701A8016D2F7C2F8B2F22
:1008C0009D2D285938424C4151096109710981090E
:1008D0009109273938424C4151056105710581055F
:1008E000910509F0D0F49701A8016D2F7C2F8B2F73
:1008F0009D2D07E00E94DD2A2083318342835383AC
:10090000648375838683978387E0DF91CF911F91FE
:100910000F91FF90EF90DF9008959701A8016D2F40
:100920007C2F8B2F9D2D2053314548435109610960
:100930007109810991092F323145484351056105FB
:1009400071058105910509F098F49701A8016D2FB3
:100950007C2F8B2F9D2D06E00E94DD2A2083318382
:1009600042835383648375838683978386E0CDCFE8
:100970009701A8016D2F7C2F8B2F9D2D2056324A79
:100980004047510961097109810991092F35324A9E
:1009900040475105610571058105910509F098F4FD
:1009A0009701A8016D2F7C2F8B2F9D2D05E00E94B4
:1009B000DD2A208331834283538364837583868356
:1009C000978385E0A2CF9701A8016D2F7C2F8B2FF5
:1009D0009D2D205C3444414E510961097109810902
:1009E00091092F3B3444414E510561057105810544
:1009F000910509F098F49701A8016D2F7C2F8B2F9A
:100A00009D2D04E00E94DD2A20833183428353839D
:100A1000648375838683978384E077CF9701A801E9
:100A20006D2F7C2F8B2F9D2D20583948424C5140E3
:100A300061097109810991092F373948424C5140A8
:100A4000610571058105910509F098F49701A801E8
:100A50006D2F7C2F8B2F9D2D03E00E94DD2A20839C
:100A6000318342835383648375838683978383E0D2
:100A70004CCF9701A8016D2F7C2F8B2F9D2D3351CB
:100A80004548534061097109810991092F3F32415D
:100A900045485340610571058105910509F098F4B9
:100AA0009701A8016D2F7C2F8B2F9D2D02E00E94B6
:100AB000DD2A208331834283538364837583868355
:100AC000978382E022CF9701A8016D2F7C2F8B2F77
:100AD0009D2D36524A40574061097109810991099B
:100AE0002F3F35424A405740610571058105910508
:100AF00009F098F49701A8016D2F7C2F8B2F9D2D65
:100B000001E00E94DD2A2083318342835383648382
:100B100075838683978381E0F8CE80E0F6CE2F92AE
:100B20003F924F925F926F927F928F929F92AF927D
:100B3000BF92CF92DF92EF92FF920F931F93CF93CA
:100B4000DF93CDB7DEB76C970FB6F894DEBF0FBE5C
:100B5000CDBF322E3D87242E5E872B013C01A9821A
:100B6000BF86C88AD98AEA8AFB8A0C8B1D8B988E2D
:100B70008F8A211501EC30070AE140070DE3500789
:100B800005E0600771058105910509F0A0F52F3793
:100B900010EF31071AEF410712E0510761057105A7
:100BA0008105910509F008F4B4C12F3F354D41414D
:100BB0005E47634071058105910509F008F48FC017
:100BC00029813F85488959896A897B898C899D89D2
:100BD000A0E0992493940E94282B09F08EC011E084
:100BE0001E8B94E0892E912CA12CB12C89869A869B
:100BF000AB86BC862FC0312CB1ECBD872AE1222EFA
:100C0000EDE3EE8735E0432E512C612C712CD8CFCB
:100C1000A32CBD84C22CDE847201830120E034E069
:100C20004BE654EF64E170E080E090E00E94702AAF
:100C3000122FB32FF42FE52FA7E00E94282B21F4C9
:100C400016E0B0E0F0E0E0E0CF011987BA879B87BB
:100C5000EC871E8A89849A84AB84BC84A5019401A4
:100C600060E070E0CB01A32CBD84C22CDE84720155
:100C7000830129833A834B835C836D837E838F83D7
:100C8000988760E070E080E090E00E94BA292983B4
:100C90003F87488B598B6A8B7B8B8C8B9D8B0E8906
:100CA000C12CD12C7601C39440E050E0BA01013050
:100CB00009F0A9C0AF89B88D1D921D921D921C929A
:100CC0001397FD01148215821682178281E090E04D
:100CD000A0E0B0E080879187A287B387DEC029813A
:100CE0003F85488959896A897B898C899D89A0E0DB
:100CF0000E94282B09F48CCF912CA32CBD84C22CEC
:100D0000DE847201830129813F85488959896A8976
:100D10007B898C899D890E94702A29873A874B8715
:100D20005C8729853A854B855C8506E0A02EB12C31
:100D3000263031054105510568F089859A85AB85D6
:100D4000BC8589309740A105B105D0F0B8E0AB2E45
:100D500017E0B12EC12CD12CE12CF12C00E010E0D9
:100D600029813F85488959896A897B898C899D8930
:100D70000E94702A322E3D87242E5E872B013C0173
:100D8000A32CBD84C22CDE847201830129813F859E
:100D9000488959896A897B898C899D890E946E2A34
:100DA000E0E4AE2EF2E4BF2EAFE0CA2ED12CE12C4F
:100DB000F12C00E010E00E94BA29A32CBD84C22CC3
:100DC000DE84720183010E94702AA32FF42FE52F85
:100DD000422F5A2F6F2F7E2FA0E4CA2EA2E4DA2EC4
:100DE000AFE0EA2EF12C411551056105710521F4A2
:100DF000C12CD12C7601C394AA24A3949A1409F48B
:100E00006DC001E00E8BCB01BA0117E0660F771FB2
:100E1000881F991F1A95D1F7A70196010E94792979
:100E2000298F3A8F4B8F5C8F89849A84AB84BC84E2
:100E300007E0880C991CAA1CBB1C0A95D1F79501E8
:100E4000840112502109310948015901298D3A8D37
:100E50004B8D5C8D280D391D4A1D5B1DAF89B88DEA
:100E60002D933D934D935C931397FD01648375839C
:100E7000868397831896CD92DD92ED92FC921B9714
:100E80008E88882051F039829D849F86288AAE847E
:100E9000A98A4A8A5B8A6C8A7D8A29813F8548892A
:100EA00059896A897B898C899D896C960FB6F894DB
:100EB000DEBF0FBECDBFDF91CF911F910F91FF908D
:100EC000EF90DF90CF90BF90AF909F908F907F90EA
:100ED0006F905F904F903F902F900895AF89B88D9D
:100EE0001D921D921D921C921397FD011482158272
:100EF0001682178281E090E0A0E0B0E080879187C1
:100F0000A287B3873982FD85FF87288A8E84898AE4
:100F1000C0CF29813F85488959896A897B898C8915
:100F20009D89A0E0E0E83E2EF0EFFD87FAEF2F2E3E
:100F300002E00E87412C512C612C712C0E94282B31
:100F400009F0DACE18E0B7E07DCEDF92EF92FF92A3
:100F50000F931F93CF93DF93FC01E080F180028118
:100F60001381D481C581B681D7809701A8016D2FE7
:100F70007C2F8B2F9D2D20583A4146405109610905
:100F80007109810991092F373A41464051056105A0
:100F900071058105910509F0D0F49701A8016D2F25
:100FA0007C2F8B2F9D2D07E00E94DD2A208331832B
:100FB00042835383648375838683978387E0DF91BD
:100FC000CF911F910F91FF90EF90DF9008959701BF
:100FD000A8016D2F7C2F8B2F9D2D35534C4051092F
:100FE00061097109810991092F3F34434C40510532
:100FF000610571058105910509F098F49701A80133
:101000006D2F7C2F8B2F9D2D06E00E94DD2A2083E3
:10101000318342835383648375838683978386E019
:10102000CECF9701A8016D2F7C2F8B2F9D2D3A5687
:101030004841510961097109810991092F3F3946D8
:1010400048415105610571058105910509F098F444
:101050009701A8016D2F7C2F8B2F9D2D05E00E94FD
:10106000DD2A20833183428353836483758386839F
:10107000978385E0A4CF9701A8016D2F7C2F8B2F3C
:101080009D2D345D40435109610971098109910920
:101090002F3F334D40435105610571058105910591
:1010A00009F098F49701A8016D2F7C2F8B2F9D2DAF
:1010B00004E00E94DD2A20833183428353836483CA
:1010C00075838683978384E07ACF9701A8016D2F7B
:1010D0007C2F8B2F9D2D385A41465109610971098A
:1010E000810991092F3F374A414651056105710534
:1010F0008105910509F098F49701A8016D2F7C2FC7
:101100008B2F9D2D03E00E94DD2A208331834283B3
:101110005383648375838683978383E050CF9701DD
:10112000A8016D2F7C2F8B2F9D2D3055434C5109DD
:1011300061097109810991092F3F3F44434C5105D1
:10114000610571058105910509F098F49701A801E1
:101150006D2F7C2F8B2F9D2D02E00E94DD2A208396
:10116000318342835383648375838683978382E0CC
:1011700026CF9701A8016D2F7C2F8B2F9D2D305AE4
:101180004648514061097109810991092F3F3F4942
:1011900046485140610571058105910509F098F4B3
:1011A0009701A8016D2F7C2F8B2F9D2D01E00E94B0
:1011B000DD2A20833183428353836483758386834E
:1011C000978381E0FCCE80E0FACE089508950895DB
:1011D000AF92BF92CF92DF92EF92FF920F931F9345
:1011E000CF93DF936C017B018B01040F151FEB0183
:1011F0005E01AE18BF08C017D10759F06991D6013A
:10120000ED91FC910190F081E02DC6010995892BAB
:1012100079F7C501DF91CF911F910F91FF90EF906A
:10122000DF90CF90BF90AF900895FC01538D448D17
:10123000252F30E0842F90E0821B930B541710F081
:10124000CF96089501970895FC01918D828D98178E
:1012500061F0A28DAE0FBF2FB11D5D968C91928D66
:101260009F5F9F73928F90E008958FEF9FEF089597
:101270002FB7F8948091680290916902A0916A0258
:10128000B0916B022FBF8093780290937902A09364
:101290007A02B0937B0280E792E00E94240997FFD4
:1012A00026C02FB7F8948091680290916902A091AE
:1012B0006A02B0916B022FBF40917802509179027F
:1012C00060917A0270917B02841B950BA60BB70B81
:1012D000409174025091750260917602709177028C
:1012E00084179507A607B707B0F28FEF9FEF089511
:1012F000FC01918D828D981731F0828DE80FF11DE0
:10130000858D90E008958FEF9FEF0895FC01918DFA
:10131000228D892F90E0805C9F4F821B91098F73F3
:101320009927089580E792E00E94860921E0892BA1
:1013300009F420E0822F089580E090E0892B29F0C5
:101340000E94920981110C9400000895FC01A48D63
:10135000A80FB92FB11DA35ABF4F2C91848D90E0D7
:1013600001968F739927848FA689B7892C93A089BA
:10137000B1898C91837080648C93938D848D981344
:1013800006C00288F389E02D80818F7D80830895D7
:10139000EF92FF920F931F93CF93DF93EC0181E0C5
:1013A000888F9B8D8C8D98131AC0E889F98980816C
:1013B00085FF15C09FB7F894EE89FF896083E8899F
:1013C000F98980818370806480839FBF81E090E091
:1013D000DF91CF911F910F91FF90EF900895F62E1E
:1013E0000B8D10E00F5F1F4F0F731127E02E8C8DB8
:1013F0008E110CC00FB607FCFACFE889F9898081FD
:1014000085FFF5CFCE010E94A609F1CFEB8DEC0F41
:10141000FD2FF11DE35AFF4FF0829FB7F8940B8F19
:10142000EA89FB8980818062CFCFCF93DF93EC0183
:10143000888D8823B9F0AA89BB89E889F9898C91BC
:1014400085FD03C0808186FD0DC00FB607FCF7CF78
:101450008C9185FFF2CF808185FFEDCFCE010E9478
:10146000A609E9CFDF91CF910895833081F028F468
:10147000813099F08230A9F008958730A9F0883042
:10148000C9F08430B1F4809180008F7D03C08091D9
:1014900080008F7780938000089584B58F7784BD16
:1014A000089584B58F7DFBCF8091B0008F778093B6
:1014B000B00008958091B0008F7DF9CFCF93DF9376
:1014C000282F30E0F901E255FF4F8491F901E656EB
:1014D000FF4FD491F901EA57FF4FC491CC23A1F0FB
:1014E00081110E94350AEC2FF0E0EE0FFF1FE45847
:1014F000FF4FA591B491EC91ED2381E090E009F4C8
:1015000080E0DF91CF91089580E090E0FACF1F93C3
:10151000CF93DF93282F30E0F901E255FF4F8491FC
:10152000F901E656FF4FD491F901EA57FF4FC491F4
:10153000CC23A9F0162F81110E94350AEC2FF0E080
:10154000EE0FFF1FEE58FF4FA591B4918FB7F8949F
:10155000EC91111108C0D095DE23DC938FBFDF9191
:10156000CF911F910895DE2BF8CFCF93DF9390E0BA
:10157000FC01E656FF4F24918A579F4FFC0184914E
:101580008823D1F090E0880F991FFC01E859FF4FA4
:10159000A591B491FC01EE58FF4FC591D491611112
:1015A0000EC09FB7F8948C91E22FE0958E238C9318
:1015B0002881E223E8839FBFDF91CF9108958FB701
:1015C000F894EC91E22BEC938FBFF6CF3FB7F894F1
:1015D0008091DA019091DB01A091DC01B091DD01F5
:1015E00026B5A89B05C02F3F19F00196A11DB11D7E
:1015F0003FBFBA2FA92F982F8827BC01CD01620FBA
:10160000711D811D911D42E0660F771F881F991F74
:101610004A95D1F708958F929F92AF92BF92CF9241
:10162000DF92EF92FF926B017C010E94E60A4B0170
:101630005C01C114D104E104F104B9F00E94E60A8E
:10164000681979098A099B09683E734081059105EB
:1016500080F321E0C21AD108E108F10888EE880E73
:1016600083E0981EA11CB11CE4CFFF90EF90DF90A7
:10167000CF90BF90AF909F908F9008952091B6012A
:10168000260F3327331F21323105ECF420913E021F
:10169000FC0190E080E0243069F082E00895A091A0
:1016A000B6012191AC014A565E4FA40FB52FB11D72
:1016B0002C930196861798F38091B601680F60937A
:1016C000B60180E0089581E0089510923E0281E025
:1016D00080933D021092180261E082E10E94870A25
:1016E00061E083E10E94870AE9EBF0E080818E7F70
:1016F000808380818D7F808388E48093B80085E437
:101700008093BC000895CF93DF9391E0909395016F
:101710008823B9F0C091B800D091BA008091BC0084
:101720008A7B8093BC0060E082E10E94870A60E0CF
:1017300083E10E94870A0E94650BD093BA00C09390
:10174000B800DF91CF9108958F929F92AF92BF9290
:10175000CF92DF92EF92FF920F931F93CF93DF937D
:10176000D0916702D13208F0D7C0182FC09166021D
:101770000E94E60A6B017C0180913E0281116BC0E0
:1017800082E080933E0210933D028FEF80933C02F3
:1017900010923B02D0933A02A6E4B2E0EAE1F2E012
:1017A00080E0D81391C01092190280911902CC0FD9
:1017B000C82BC093190280911802813009F088C0AB
:1017C000109218020E94E60A6B017C0180911902B6
:1017D0008093BB008091400290914102A09142020F
:1017E000B0914302892B8A2B8B2BA1F00E94E60A31
:1017F0000091400210914102209142023091430237
:101800006C197D098E099F090617170728073907E4
:1018100008F442C08091BC0083FDD8CF85EC809352
:10182000BC000E94E60A6B017C0180913E0282307E
:1018300009F450C080913C028F3F09F46FC0809141
:101840003C02803209F46CC080913C02803309F480
:1018500069C084E026C08091400290914102A0912D
:101860004202B0914302892B8A2B8B2B09F484CF3F
:101870000E94E60A8090400290904102A0904202AD
:10188000B09043026C197D098E099F098616970650
:10189000A806B90608F070CF80913F020E94830B22
:1018A00085E0109245021092670210924402DF9187
:1018B000CF911F910F91FF90EF90DF90CF90BF904D
:1018C000AF909F908F9008959D9191938F5F69CF76
:1018D00085EEA5CF8091400290914102A0914202F5
:1018E000B0914302892B8A2B8B2B09F49ECF0E9447
:1018F000E60A00914002109141022091420230918B
:1019000043026C197D098E099F09061717072807DE
:10191000390708F08ACFC0CF81E0C3CF80E0C1CFC4
:1019200082E0BFCF83E0BDCF0895E091F7018091C1
:10193000F601E81730F4F0E0E850FE4F808190E0C7
:1019400008958FEF9FEF08959091F7018091F60130
:101950002FEF3FEF981748F4E92FF0E0E850FE4FE3
:10196000208130E09F5F9093F701C9010895CF92E5
:10197000DF92EF92FF920F931F93CF93DF937C013F
:10198000CB018A0120914402222389F0EB016B01F3
:10199000C40ED51ECC15DD0569F06991D701ED9116
:1019A000FC910190F081E02DC7010995F3CF642FE0
:1019B0000E943E0BC801DF91CF911F910F91FF90C4
:1019C000EF90DF90CF900895CF93DF931F92CDB724
:1019D000DEB76983209144022223F9F02091670247
:1019E000203258F021E030E0FC013383228390E084
:1019F00080E00F90DF91CF91089580914502E82F0C
:101A0000F0E0EA5BFD4F998190838F5F8093450200
:101A10008093670281E090E0ECCF61E0CE01019617
:101A20000E943E0BF7CFCF93C62F9091970321E0F2
:101A3000209344029093660210924502109267022E
:101A4000682F8DE093E00E94E40C6C2F8DE093E012
:101A50000E94E40C81E0CF910C94A40BEF92FF92D2
:101A60000F931F93CF93DF93062F7A0190919703E3
:101A700021E0209344029093660210924502109256
:101A80006702682F8DE093E00E94E40CE70110E00C
:101A9000CE018E199F098017910734F469918DE06A
:101AA00093E00E94E40CF4CF81E0DF91CF911F918D
:101AB0000F91FF90EF900C94A40B90E080E00895BC
:101AC00080919301909194018035910509F05DC05A
:101AD00048E055E866E370E040938F015093900131
:101AE000609391017093920148ED5CE866E370E0C9
:101AF00040938B0150938C0160938D0170938E0104
:101B000040E958E966E370E040938701509388010B
:101B10006093890170938A0148ED53E766E370E0B2
:101B200040938301509384016093850170938601F3
:101B30008F30910509F089C080E590E9A1E4B1E01A
:101B400080938F0190939001A0939101B0939201A3
:101B500080E292E9A2E4B1E080938B0190938C0142
:101B6000A0938D01B0938E0180EF9FE9A1E4B1E0D5
:101B70008093870190938801A0938901B0938A0193
:101B800088EC90EEA1E4B1E0B7C08832910549F548
:101B900040ED50EF6BE670E040938F015093900161
:101BA00060939101709392014CE459E86BE670E008
:101BB00040938B0150938C0160938D0170938E0143
:101BC00040E750E06CE670E0409387015093880155
:101BD0006093890170938A0148E856E66BE670E0ED
:101BE0009FCF8E31910509F05CC040EC59EA6AE95B
:101BF00070E040938F015093900160939101709336
:101C0000920140E659EB6AE970E040938B015093F2
:101C10008C0160938D0170938E0140E552E96AE971
:101C200070E040938701509388016093890170931D
:101C30008A014CE454EB6AE970E0409383015093CD
:101C4000840160938501709386010A9709F05CC056
:101C500080E190E6ACEAB1E080938F01909390012F
:101C6000A0939101B093920180E29EEFADEAB1E0C2
:101C700080938B0190938C01A0938D01B0938E0182
:101C800080EB9FE6ACEAB1E08093870190938801F6
:101C9000A0938901B0938A0188EB95E2ADEAB1E0A7
:101CA0002BC08431910589F580E990ECA6EDB0E078
:101CB00080938F0190939001A0939101B093920132
:101CC00080E098EDA6EDB0E080938B0190938C01BD
:101CD000A0938D01B0938E0180E390EDA6EDB0E06E
:101CE0008093870190938801A0938901B0938A0122
:101CF00080EF94E1A7EDB0E080938301909384019D
:101D0000A0938501B093860108958131910509F072
:101D10000FCF80E29FE2A4E1B1E080938F01909326
:101D20009001A0939101B093920180EC9EE3A4E115
:101D3000B1E080938B0190938C01A0938D01B093BF
:101D40008E018093870190938801A0938901B093BD
:101D50008A0188E191E4A4E1B1E0CECFCF92DF9295
:101D6000EF92FF920F931F93CF939091970321E0EF
:101D700020934402909366021092450210926702EB
:101D8000682F8DE093E00E94E40C81E00E94A40B98
:101D9000C09197030E94E60A6B017C0180913E028C
:101DA000811165C081E080933E0210923D029FEF59
:101DB00090933C0210923B0210923A0280931902D7
:101DC00080911902CC0FC82BC09319028091180280
:101DD000813009F080C0109218020E94E60A6B015F
:101DE0007C01809119028093BB0080914002909108
:101DF0004102A0914202B0914302892B8A2B8B2B86
:101E0000A1F00E94E60A0091400210914102209147
:101E10004202309143026C197D098E099F09061711
:101E200017072807390708F443C08091BC0083FDD9
:101E3000D8CF85EC8093BC000E94E60A6B017C0140
:101E400080913E02813009F448C080913B02C1E09C
:101E5000811102C0C0913B02EAE1F2E0A8EFB1E0DB
:101E600080E08C1751F191919D938F5FFACF809113
:101E7000400290914102A0914202B0914302892B0D
:101E80008A2B8B2B09F48ACF0E94E60A009140022C
:101E90001091410220914202309143026C197D0958
:101EA0008E099F09061717072807390708F076CF0C
:101EB00080913F020E94830BC0E01092F701C09313
:101EC000F60180E09091F701C91749F18DE093E0A8
:101ED0000E94A40CF7CF85EEADCF80914002909187
:101EE0004102A0914202B0914302892B8A2B8B2B95
:101EF00009F4A6CF0E94E60A009140021091410227
:101F000020914202309143026C197D098E099F098C
:101F1000061717072807390708F092CFC9CFCF91C6
:101F20001F910F91FF90EF90DF90CF900895CF9386
:101F3000DF93D82FC62F83E00E94AE0E61E070E0E1
:101F400001C0660FDA95EAF7C13039F4609568236D
:101F500083E0DF91CF910C94130D682BF9CF1F9381
:101F6000CF93DF93C62F142F865F9E4FFC01D08145
:101F70008D2F0E94AE0E837811118C60F0E1CF9FFF
:101F8000B0011124682B8D2FDF91CF911F910C94FC
:101F9000130DCF93DF93D62FC0E1C80F8C2F0E9473
:101FA000AE0E682FD13031F460648C2FDF91CF9169
:101FB0000C94130D6F7BF9CFFF920F931F93CF9368
:101FC000DF93EC018B01F82E80E1F80E8F2D0E943B
:101FD000AE0E682F0115110581F46F7D8F2D0E94C3
:101FE000130DCC0FDD1FC75EDC4F1A870987DF9109
:101FF000CF911F910F91FF9008956062EFCFCF9323
:10200000DF938AE090E00E941229CCE6D2E0888338
:102010008BE090E00E94122989838CE090E00E947E
:1020200012298A838DE090E00E9412298B83CE01D1
:10203000DF91CF9108950F931F93CF93DF938C017E
:10204000EB010E9412298883C80101960E9412297F
:102050008983CE01DF91CF911F910F9108956CEE8E
:1020600071E088E290E00E941B108091EC01909159
:10207000ED01019701F58091830190918401A09178
:102080008501B09186018093E6019093E701A093CA
:10209000E801B093E90161E089E00E94870A60E00D
:1020A0008AE00E94870A60E08BE00E94870A60E075
:1020B0008CE00E94870A8091EC019091ED010297DB
:1020C00001F58091870190918801A0918901B091DB
:1020D0008A018093E6019093E701A093E801B09311
:1020E000E90160E089E00E94870A61E08AE00E94DD
:1020F000870A60E08BE00E94870A60E08CE00E9423
:10210000870A8091EC019091ED01039701F5809190
:102110008B0190918C01A0918D01B0918E018093E3
:10212000E6019093E701A093E801B093E90160E034
:1021300089E00E94870A60E08AE00E94870A61E0E5
:102140008BE00E94870A60E08CE00E94870A809101
:10215000EC019091ED01049701F580918F01909130
:102160009001A0919101B09192018093E60190932A
:10217000E701A093E801B093E90160E089E00E94E3
:10218000870A60E08AE00E94870A60E08BE00E9494
:10219000870A61E08CE00E94870A8091E6019091B5
:1021A000E701A091E801B091E901809300019093CB
:1021B0000101A0930201B0930301089560E089E05A
:1021C0000E94870A60E08AE00E94870A60E08BE054
:1021D0000E94870A60E08CE00E94870A64EE71E04A
:1021E00082E390E00E941B108091E4019091E50150
:1021F000019709F042C088E290E0909394018093A7
:10220000930161E089E00E94870A6AEF70E080E054
:1022100090E00E940B0B60E089E00E94870A6AEF61
:1022200070E080E090E00E940B0B61E089E00E948A
:10223000870A6AEF70E080E090E00E940B0B60E09C
:1022400089E00E94870A6AEF70E080E090E00E94D7
:102250000B0B61E089E00E94870A6AEF70E080E082
:1022600090E00E940B0B60E089E00E94870A6AEF11
:1022700070E080E090E00E940B0B8091E40190916F
:10228000E501029709F042C08EE190E0909394013D
:102290008093930161E08AE00E94870A6AEF70E010
:1022A00080E090E00E940B0B60E08AE00E94870AC9
:1022B0006AEF70E080E090E00E940B0B61E08AE042
:1022C0000E94870A6AEF70E080E090E00E940B0BAA
:1022D00060E08AE00E94870A6AEF70E080E090E0A8
:1022E0000E940B0B61E08AE00E94870A6AEF70E0AF
:1022F00080E090E00E940B0B60E08AE00E94870A79
:102300006AEF70E080E090E00E940B0B8091E401A6
:102310009091E501039709F042C084E190E0909329
:1023200094018093930161E08BE00E94870A6AEF39
:1023300070E080E090E00E940B0B60E08BE00E9478
:10234000870A6AEF70E080E090E00E940B0B61E08A
:102350008BE00E94870A6AEF70E080E090E00E94C4
:102360000B0B60E08BE00E94870A6AEF70E080E070
:1023700090E00E940B0B61E08BE00E94870A6AEFFD
:1023800070E080E090E00E940B0B60E08BE00E9428
:10239000870A6AEF70E080E090E00E940B0B80916A
:1023A000E4019091E501049709F042C081E190E0D9
:1023B000909394018093930161E08CE00E94870ADE
:1023C0006AEF70E080E090E00E940B0B60E08CE030
:1023D0000E94870A6AEF70E080E090E00E940B0B99
:1023E00061E08CE00E94870A6AEF70E080E090E094
:1023F0000E940B0B60E08CE00E94870A6AEF70E09D
:1024000080E090E00E940B0B61E08CE00E94870A64
:102410006AEF70E080E090E00E940B0B60E08CE0DF
:102420000E94870A6AEF70E080E090E00E940B0B48
:1024300068EE73E080E090E00E940B0B0E94600D5C
:102440000C942F10FF920F931F93CF93DF93EC0107
:102450008B01FB01F0800E941229F81621F06F2DEC
:10246000CE010E941A29F801F1802196CE010E9426
:102470001229F81621F06F2DCE010E941A29C801E9
:10248000DF91CF911F910F91FF900895FF920F93CD
:102490001F93CF93DF930CE612E0CAE0D0E0F8017F
:1024A000F1908F01CE010E941229F81621F06F2DB4
:1024B000CE010E941A292196CE30D10581F78CE6F3
:1024C00092E0DF91CF911F910F91FF9008952F928D
:1024D0003F924F925F926F927F928F929F92AF92B4
:1024E000BF92CF92DF92EF92FF920F931F93CF9301
:1024F000DF93CDB7DEB72D970FB6F894DEBF0FBED2
:10250000CDBF3C01C982DA82EB82FC820D831E833F
:102510002F83388749875A876B877C87BAA03C2CE2
:102520002D2C5E2C0D87412E922EC984DA84EB84EB
:10253000FC8484E190E00E943A2B8C01FC01D08263
:10254000C182862D880F880F880F845D0E94AE0E91
:10255000F52DF3705F2E8C7F582AF801528223826A
:1025600034828CE0F694E794D794C7948A95D1F797
:10257000FC2DF07FCF2E892D8F70C82AF801C582DF
:1025800046828D85878393E06916710409F46CC0D7
:10259000A8F5F1E06F16710409F448C082E06816EE
:1025A000710409F452C0A80168E08AE20E942E0D6D
:1025B0006A2D90E080E00E94C90F4B2D682D90E0BD
:1025C00080E00E94AF0FC8012D960FB6F894DEBFD1
:1025D0000FBECDBFDF91CF911F910F91FF90EF9074
:1025E000DF90CF90BF90AF909F908F907F906F9033
:1025F0005F904F903F902F900C94D62B94E06916EB
:10260000710409F440C0E5E06E16710461F6A8019A
:1026100068E082E50E942E0D6A2D85E090E00E9420
:10262000C90F4B2D682D85E090E0CBCFA80168E065
:1026300082E30E942E0D6A2D81E090E00E94C90F76
:102640004B2D682D81E090E0BCCFA80168E08AE3C3
:102650000E942E0D6A2D82E090E00E94C90F4B2D42
:10266000682D82E090E0ADCFA80168E082E40E948E
:102670002E0D6A2D83E090E00E94C90F4B2D682D2E
:1026800083E090E09ECFA80168E08AE40E942E0DCE
:102690006A2D84E090E00E94C90F4B2D682D84E0E4
:1026A00090E08FCF2F923F924F925F926F927F92E6
:1026B0008F929F92AF92BF92CF92DF92EF92FF9252
:1026C0000F931F93CF93DF93CDB7DEB72E970FB63F
:1026D000F894DEBF0FBECDBF19013A014B018D87C3
:1026E0009E872801012B09F073C0E0918203F091CD
:1026F0008303EE0FFF1FEE0FFF1FE257FC4FA0807A
:10270000B180C280D380CE0101967C018901930102
:10271000AB016D857E8590E080E00E94940084E1AD
:1027200090E00E943A2B8C0189859A85AB85BC8507
:10273000F8019083818339814A812B812370228320
:10274000438334832CE0B695A795979587952A9572
:10275000D1F7807F2D813E819F819F70892B85835A
:10276000368327834114510409F04BC0A80168E067
:102770008AE10E942E0D20927203309273036092C0
:102780007403709275038092760390927703FD85AF
:10279000F09378038E8580937903C8012E960FB647
:1027A000F894DEBF0FBECDBFDF91CF911F910F9187
:1027B000FF90EF90DF90CF90BF90AF909F908F9061
:1027C0007F906F905F904F903F902F900C94D62BFE
:1027D000E0918403F0918503EE0FFF1FEE0FFF1FC2
:1027E000E257FC4FA080B180C280D380FE013196B9
:1027F0007F0181019A01AB016D857E8581E090E0CA
:102800008CCF4A94452849F6A80168E082E20E94EC
:102810002E0D20927A0330927B0360927C0370929B
:102820007D0380927E0390927F03ED85E093800389
:10283000FE85F0938103B1CF2F923F924F925F922A
:102840006F927F928F929F92AF92BF92CF92DF92C0
:10285000EF92FF920F931F93CF93DF93CDB7DEB725
:10286000E5970FB6F894DEBF0FBECDBFE22E29A3C9
:10287000F32E3AA34BA35CA36DA37EA38FA398A7CB
:10288000702E612E9701AFEF0E941C2B2E373A411C
:1028900046405105610571058105910509F058F41F
:1028A00080E889A38AE18AA386E08BA31CA21DA2EB
:1028B0001EA21FA218A629A13AA14BA15CA16DA13D
:1028C0007EA18FA198A52115314C4A415D436540F9
:1028D00071058105910569F060F019A281EC8AA368
:1028E0008AE18BA38DE38CA385E08DA31EA21FA29A
:1028F00018A6D9A04AA05BA0ACA0EDA0FEA00FA195
:1029000018A5272C362C2D2D342D452D5A2DB701E9
:10291000C8012115344E4B40544562407105810574
:10292000910509F008F425C1A2E34A2EA3E05A2E2E
:1029300029E133E03AA729A78901F201D12CC1018D
:10294000880F991FDC01AE5DBC4F7D012081318174
:1029500042815381648175818681978138962115E2
:10296000344E4B405445624071058105910571F02C
:1029700068F0D71459F0D80119962D913C91D701E0
:102980008D919C912817390709F46AC1D3940E5F81
:102990001F4FB6E0DB12DACF810108561C4FF80159
:1029A0008081811108C061E0872D962D0E94970FCC
:1029B00081E0D8018C9329A13AA14BA15CA16DA122
:1029C0007EA18FA198A5D101E3E0AA0FBB1FEA95D4
:1029D000E1F7A75EBC4FFD01799659962C933183A0
:1029E000428353836483758386839783FE013D9678
:1029F0004F01A12CB12CC12CD12CE12CF12C00E0E9
:102A000010E00E948F052BA73CA74DA75EA76FA7DC
:102A100078AB89AB9AABC101880F991F9C01275EE7
:102A20003C4F7901D90119960D911C912BA53CA51C
:102A300089A99AA90E945213712C612CF701399629
:102A4000FDABECABD201AC901196EC9011971296C5
:102A5000FC90129713960C91139714961C9114974F
:102A60001596BC91F201D680C780F8E04F0E511C3C
:102A70002A2D3E2D4F2D502F612F7B2F8D2D9C2DDC
:102A8000A0E00E94282B09F455C0E9A5FAA52185EC
:102A90003285ECA9FDA9808191812817390709F0B9
:102AA00049C0A98EEA8EFB8E0C8F1D8FBE8FDF8EE4
:102AB000C8A2CE0149960E94A5078BAB298D3A8DFD
:102AC0004B8D5C8D6D8D7E8DCE0101964C01ABA43E
:102AD000BCA4CDA4DEA4EFA4F8A809A91AA98F8DDF
:102AE00098A10E948F05AA24A394298D3A8D4B8D1D
:102AF0005C8D6D8D7E8D8F8D98A12F3F354D414121
:102B00005E47634071058105910509F008F4A12C29
:102B1000AF928BA8C980DA80EB80FC800D811E818A
:102B20002F81388549855A856B857C85C3010E9434
:102B300067120F90BFEF6B1A7B0AE9A5FAA53296D0
:102B4000FAA7E9A7F6E06F16710409F07BCFF1014F
:102B5000EE0FFF1FE75EFC4F8185928560E20097D4
:102B600019F0019721F460E881EB0E94130D80E0D9
:102B700078C0D10193E0AA0FBB1F9A95E1F7A75E39
:102B8000BC4FFD0179965996DC9241825282A38214
:102B9000E482F58206831783810108561C4FD80111
:102BA0008C91811108C061E0872D962D0E94970FAE
:102BB00081E0F8018083CE0181960E94A507582EFE
:102BC000F101EE0FFF1FE75EFC4F0184F285E02D5F
:102BD00029A13AA14BA15CA16DA17EA18FA198A5CD
:102BE000EF2B51F5A0907203B0907303C090740363
:102BF000D0907503E0907603F0907703009178030E
:102C000010917903DE011D964D010E948F051F92E0
:102C1000852CA12CCD84DE84EF84F88809891A895B
:102C20002B893C894D895E896F89788D872D962DFA
:102C30000E9467120F909BCFA0907A03B0907B0305
:102C4000C0907C03D0907D03E0907E03F0907F03E2
:102C50000091800310918103FE013D964F01D5CF75
:102C600081E0E5960FB6F894DEBF0FBECDBFDF91D1
:102C7000CF911F910F91FF90EF90DF90CF90BF9079
:102C8000AF909F908F907F906F905F904F903F900C
:102C90002F9008950F931F9360938E0370938F036B
:102CA0008093900390939103E2E7F3E020813181D8
:102CB000428153816481758110E000E086819781B3
:102CC0000E945213EAE7F3E020813181428153816F
:102CD0006481758101E010E0868197810E94521322
:102CE0001F910F910895CF93DF93EC018881998113
:102CF000009711F00E94D62B198218821D821C8227
:102D00001B821A82DF91CF910895FC01808191810D
:102D1000009711F00C94D62B0895FC012481358185
:102D2000232B39F421E0FB018081882349F020E046
:102D300007C0808191810E943F2D21E0892BB9F746
:102D4000822F08950F931F93CF93DF938C01EB0194
:102D5000FC01808191810097E1F0688179816115A2
:102D60007105A9F0428153812C813D81421753079F
:102D700070F00E94482D8C819D81F8019583848399
:102D80001D821C82DF91CF911F910F9108950E94A7
:102D9000D62B88819981F801918380838A819B81D8
:102DA000938382838C819D81958384831982188289
:102DB0001B821A82E5CF0F931F93CF93DF93EC0111
:102DC00088819981009759F02A813B81261737071E
:102DD00030F081E0DF91CF911F910F9108958B0129
:102DE0006F5F7F4F0E945F2C009759F09983888313
:102DF0001B830A832C813D81232B59F7FC01108210
:102E0000E8CF80E0E7CFEF92FF920F931F93CF932D
:102E1000DF936115710541F480E0DF91CF911F913F
:102E20000F91FF90EF90089541155105B1F07B018E
:102E3000EC010C811D81040F151FB8010E94DB16E7
:102E4000882351F3288139818C819D81B701820FBC
:102E5000931F0E94482D1D830C8381E0DECFCF930A
:102E6000DF93EC01FB0101900020E9F73197AF01FE
:102E7000461B570B0E940317811103C0CE010E940D
:102E80007316CE01DF91CF910895CF93DF93EC01BC
:102E9000FB0144815581608171810E94031781117A
:102EA00003C0CE010E947316CE01DF91CF91089529
:102EB000CF93DF9300D0CDB7DEB769831A8241E0AC
:102EC00050E0BE016F5F7F4F0E9403170F900F907D
:102ED000DF91CF910895EF92FF920F931F93CF93BD
:102EE000DF93EC017B018A01BA010E94DB1681119C
:102EF0000BC0CE010E947316CE01DF91CF911F91BE
:102F00000F91FF90EF9008951D830C83B701888186
:102F100099810E94482DF0CFFB0101900020E9F734
:102F20003197AF01461B570B0C946B170F931F93F0
:102F3000CF93DF93CDB7DEB7A1970FB6F894DEBF7E
:102F40000FBECDBF8C01CB01BA01F80111821082F6
:102F500013821282158214822AE0AE014F5F5F4F06
:102F60000E94C628BE016F5F7F4FC8010E948C1768
:102F7000A1960FB6F894DEBF0FBECDBFDF91CF9103
:102F80001F910F9108950F931F93CF93DF93CDB7A8
:102F9000DEB762970FB6F894DEBF0FBECDBF8C01CF
:102FA000CB01F801118210821382128215821482E1
:102FB0004AE0BE016F5F7F4F0E94A628BE016F5F8F
:102FC0007F4FC8010E948C1762960FB6F894DEBF3F
:102FD0000FBECDBFDF91CF911F910F910895CF9379
:102FE000DF93EC01FB018617970749F0608171813F
:102FF0006115710541F0448155810E946B17CE0126
:10300000DF91CF9108950E947316F9CFFC011182D0
:1030100010821382128215821482FB01019000201B
:10302000E9F73197AF01461B570B0C946B17AF9222
:10303000BF92CF92DF92EF92FF920F931F93CF93A5
:10304000DF936C015B017A0189012417350720F4B5
:103050008F2D7901042F182F67E371E0C6010E94BC
:103060000618D5011496CD91DC91EC16FD06E0F41E
:103070000C171D0708F4E801D501ED91FC9111979B
:10308000EC0FFD1F108110826D917C916E0D7F1DE4
:10309000C60161157105A1F00E948C17F5018081B0
:1030A0009181C80FD91F1883C601DF91CF911F915D
:1030B0000F91FF90EF90DF90CF90BF90AF90089569
:1030C0000E947316EBCF85ED8093BC008091400287
:1030D00090914102A0914202B09143020796A11D36
:1030E000B11D23E0B695A795979587952A95D1F7B9
:1030F0002091BC0024FD03C010923E02089540912F
:103100004002509141026091420270914302452B6E
:10311000462B472B69F30097A105B10541F02AE240
:103120002A95F1F700C00197A109B109E1CF80917B
:103130003F020C94830B2F923F924F925F926F92BB
:103140007F928F929F92AF92BF92CF92DF92EF9237
:10315000FF920F931F93CF93DF93CDB7DEB7AA975C
:103160000FB6F894DEBF0FBECDBF67E371E0CE01AE
:1031700001960E9406180E94380997FD06C0682F24
:10318000CE0101960E945817F6CFBE016F5F7F4FA8
:1031900080ED93E00E94A216CE0101960E94851652
:1031A0000091D0031091D1030115110571F0F801C0
:1031B00081918F01882349F0082E000C990B0E9401
:1031C0001C2DF80131978083F2CF67E371E0CE01C7
:1031D00007960E94061866E371E0CE0101960E94F0
:1031E0000618A090D403B090D503A114B10409F43B
:1031F00067C08D809E808114910409F461C0EB84C6
:10320000FC84E818F9080091D0031091D103E1146F
:10321000F104A1F469817A81C8010E944F2D8C01CB
:10322000009709F44DC06F8178854B855C850E94BD
:10323000242D8B859C85080F191FECCFF7FC0FC040
:1032400069807A806501C801B3010E944F2D009703
:1032500009F467C0880D991DCE0CDF1CF5CF6801FD
:1032600069817A81C8010E944F2D5C01009721F18C
:103270004C01801A910AA401B801C6010E94242DB4
:10328000C80CD91C6F8178854B855C85C6010E946E
:10329000242D8B859C85C80ED91E0D811E810A0D9B
:1032A0001B1D8091D4039091D5038E0D9F1D90938B
:1032B000D5038093D403D4CFB801C6010E94482D12
:1032C000CE0101960E948516CE0107960E948516B2
:1032D00067E371E0CE0185960E940618F12CE12C7F
:1032E00010E000E08091D4039091D503E816F90630
:1032F00008F0CDC0E091D003F091D103309709F0F0
:1033000099C010928001E0E8F1E060816B3309F42C
:1033100094C0CE0185960E945817FFEFEF1AFF0A5E
:10332000E1CFAC14BD0461F28091D2039091D3033C
:103330008C159D0588F4B6016F5F7F4FC8010E9410
:103340005F2C009709F4BCCF9093D1038093D003F6
:10335000D092D303C092D2030091D4031091D5032D
:103360000150110917FDACCF48016D807E806114BA
:10337000710409F4A5CFA090D403B090D503A11493
:10338000B10409F49DCFA614B70408F499CF0A1527
:103390001B0520F04501F1E08F1A9108C090D00381
:1033A000D090D10329803A80C6010FEF1FEF26018C
:1033B000480C591C4816590678F0B1010E944F2D4F
:1033C000009751F09C012C193D098216930608F4D0
:1033D000980101968901EECF17FD72CF600E711E24
:1033E000C601860D971DA50146195709BC018E0D12
:1033F0009F1D0E942D2D8091D4039091D5038E0D99
:103400009F1D9093D5038093D4032091D0033091D6
:10341000D103820F931FFC0110828091D003909101
:10342000D1036F8178854B855C85800F911F0E9449
:10343000242D96CFEE0DFF1D68CF60E0CE0185965E
:103440000115110591F40E945817BE016B5D7F4F65
:103450008AEC93E00E94EF1767E371E0CE01859656
:103460000E948C1701E010E058CF0E945817BE014F
:103470006B5D7F4F84EC93E00E94EF170F5F1F4F4F
:1034800067E371E0CE0185960E948C1746CF22E05B
:1034900030E050E040E06AEC73E0CE0101960E941B
:1034A0001718BE016F5F7F4F8EEB93E00E94A2164C
:1034B000CE0101960E94851622E030E050E040E007
:1034C00064EC73E0CE0101960E941718BE016F5F95
:1034D0007F4F88EB93E00E94A216CE0101960E94D6
:1034E00085162091CE033091CF0342E050E06AEC84
:1034F00073E0CE0101960E941718BE016F5F7F4FE7
:1035000082EB93E00E94A216CE0101960E948516DE
:103510002091C8033091C90342E050E064EC73E0AD
:10352000CE0101960E941718BE016F5F7F4F8CEA93
:1035300093E00E94A216CE0101960E94851668E3D0
:1035400071E08EEB93E00E948D16882309F47AC017
:1035500067E371E082EB93E00E948D16811111C048
:103560008091B2039091B303009709F467C00E9461
:103570007F28609300017093010180930201909372
:10358000030140910001509101016091020170918D
:103590000301CE0149960E9496176BE371E0CE01BC
:1035A0000D960E9406184091000150910101609112
:1035B000020170910301CE0107960E9496178B8538
:1035C0009C852BE030E0281B390B50E040E0BE0129
:1035D000635F7F4FCE0143960E94171868E371E046
:1035E000CE0101960E940618BE016D5E7F4FCE018E
:1035F00001960E944517BE01675E7F4F0E944517E6
:103600006FE671E00E942F17BC0186EA93E00E94EA
:10361000EF17CE0101960E948516CE0143960E94B7
:103620008516CE0107960E948516CE010D960E9442
:103630008516CE0149960E94851627C060E070E08D
:10364000CB0197CF67E471E08EEB93E00E948D167B
:103650006AE471E08111CBC16FE471E08EEB93E01D
:103660000E948D16882309F47CC062E571E086EA29
:1036700093E00E948C1761E08DE00E94870A81E050
:1036800090E090938201809381016FE571E088EB77
:1036900093E00E948D16882331F062E671E080EAA3
:1036A00093E00E948C170230110509F0A5C14091EA
:1036B000A4035091A5036091A0037091A10380E73A
:1036C00092E00E94E80867E571E08EEB93E00E94CB
:1036D0008D16882309F499C162E370E080E090E0E0
:1036E0000E940B0B67E371E0CE0101960E94061861
:1036F000BE016F5F7F4F86EA93E00E94A216CE0163
:1037000001960E94851667E371E0CE0101960E9442
:103710000618BE016F5F7F4F80EA93E00E94A216F9
:10372000CE0101960E948516CE0185960E948516CF
:10373000AA960FB6F894DEBF0FBECDBFDF91CF9132
:103740001F910F91FF90EF90DF90CF90BF90AF90BF
:103750009F908F907F906F905F904F903F902F90B1
:10376000089567E571E08EEB93E00E948D16882343
:1037700079F06AE571E086EA93E00E948C1760E0D8
:103780008DE00E94870A10928201109281017DCF04
:103790006FE571E08EEB93E00E948D1662E671E0BA
:1037A000811125C169E671E08EEB93E00E948D16D0
:1037B0006CE671E081111BC161E771E08EEB93E073
:1037C0000E948D16882309F407C180918101909190
:1037D000820162E070E0019709F09CC0CE014F9633
:1037E0000E94C317409100015091010160910201B4
:1037F00070910301CE0149960E9496176BE371E028
:10380000CE010D960E9406184091000150910101D1
:103810006091020170910301CE0107960E949617F4
:103820008B859C852BE030E0281B390B50E040E075
:10383000BE01635F7F4FCE0143960E94171861E778
:1038400071E0CE0101960E940618BE016D5E7F4FA9
:10385000CE0101960E944517BE01675E7F4F0E9410
:10386000451761E471E00E942F1764E771E00E9440
:103870002F1762E471E00E942F1765E471E00E9447
:103880002F1765E471E00E942F1765E471E00E9434
:103890002F1764E471E00E942F1766E771E00E9421
:1038A0002F17BE01615E7F4F0E94451765E471E0EE
:1038B0000E942F1765E471E00E942F1765E471E004
:1038C0000E942F1765E471E00E942F1763E471E0F6
:1038D0000E942F176FE671E00E942F17BC0186EA45
:1038E00093E00E94EF17CE0101960E948516CE014B
:1038F00043960E948516CE0107960E948516CE013A
:103900000D960E948516CE0149960E948516CE011D
:103910004F9691CECE014F960E94C3174091000161
:10392000509101016091020170910301CE0149960D
:103930000E9496176BE371E0CE010D960E94061867
:1039400040910001509101016091020170910301C9
:10395000CE0107960E9496178B859C852BE030E060
:10396000281B390B50E040E0BE01635F7F4FCE0162
:1039700043960E94171861E771E0CE0101960E94FC
:103980000618BE016D5E7F4FCE0101960E9445175D
:10399000BE01675E7F4F0E94451761E471E00E949F
:1039A0002F1764E771E00E942F1762E471E00E9414
:1039B0002F1765E471E00E942F1765E471E00E9403
:1039C0002F1765E471E00E942F1764E471E00E94F4
:1039D0002F1765E471E063CF68E771E08EEB93E049
:1039E0000E948D16882309F450CE6BE771E086EAB9
:1039F00093E00E948C1749CE4091AA035091AB03EB
:103A00006091A6037091A7035ACE6FE471E08EEB2C
:103A100093E00E948C178091BE039091BF03892B85
:103A200009F05ACE5FCE1F920F920FB60F9211245B
:103A30002F933F934F935F936F937F938F939F93B6
:103A4000AF93BF93EF93FF9380E792E00E94A609A4
:103A5000FF91EF91BF91AF919F918F917F916F9166
:103A60005F914F913F912F910F900FBE0F901F903C
:103A700018951F920F920FB60F9211242F938F93C8
:103A80009F93EF93FF93E0918002F09181028081F8
:103A9000E0918602F091870282FD1BC090818091A7
:103AA00089028F5F8F7320918A02821741F0E09123
:103AB0008902F0E0E059FD4F958F80938902FF91D4
:103AC000EF919F918F912F910F900FBE0F901F90AC
:103AD00018958081F4CF1F920F920FB60F92112488
:103AE0002F933F938F939F93AF93BF9380916802DF
:103AF00090916902A0916A02B0916B023091D90154
:103B000023E0230F2D3758F50196A11DB11D2093F9
:103B1000D9018093680290936902A0936A02B093DE
:103B20006B028091DA019091DB01A091DC01B091F0
:103B3000DD010196A11DB11D8093DA019093DB0197
:103B4000A093DC01B093DD01BF91AF919F918F9164
:103B50003F912F910F900FBE0F901F90189526E860
:103B6000230F0296A11DB11DD2CF1F920F920FB647
:103B70000F9211242F933F934F935F936F937F93F3
:103B80008F939F93AF93BF93EF93FF938091B9006F
:103B9000887F803609F44AC0F0F5883209F4A7C05E
:103BA00018F5803109F49BC0B8F4882309F4F9C0F2
:103BB000883009F494C0FF91EF91BF91AF919F912C
:103BC0008F917F916F915F914F913F912F910F90C6
:103BD0000FBE0F901F901895883109F488C080326D
:103BE00051F780933C0214C0803409F49DC040F426
:103BF0008033B9F38833F9F680933C0285ECB0C08A
:103C0000803509F485C0883509F496C0883499F662
:103C10000E946318D0CF883909F48CC038F58837F2
:103C200029F050F4883611F0803729F683E080932C
:103C30003E021092D80157C0883809F47BC0803901
:103C400019F0803809F0B7CF8091D801803208F0A0
:103C500071C0E091D80181E08E0F8093D8018091EE
:103C6000BB00F0E0E854FE4F80833DC0803B39F05C
:103C7000E0F4803A09F479C0883A09F09CCF84E0F6
:103C800080933E021092B7011092B601E091E201DA
:103C9000F091E30109958091B60181110FC081E097
:103CA0008093B6011092960109C0803C09F4A6CF1A
:103CB000883C09F4A3CF883B09F07DCFE091B701A0
:103CC00081E08E0F8093B701F0E0EA56FE4F8081CD
:103CD0008093BB009091B7018091B60129C080917B
:103CE00019028093BB0085EC8093BC0064CF909157
:103CF0003B0280913A02981758F5E0913B0281E02F
:103D00008E0F80933B02F0E0E65EFD4F8081E9CFAD
:103D1000E0913B0281E08E0F80933B028091BB00DB
:103D2000F0E0E65EFD4F808390913B0280913A0285
:103D30009817C8F285E8D8CFE0913B0281E08E0F5A
:103D400080933B028091BB00F0E0E65EFD4F8083F4
:103D500080913D0281115CCF81E08093180284EA5A
:103D60008093BC0010923E0226CF85EC8093BC006D
:103D700010923E028091D801803230F4E091D80157
:103D8000F0E0E854FE4F10826091D80170E0E091BD
:103D9000E001F091E10188EB91E009951092D801E2
:103DA0000ACF10923C0234CFE0E7F2E01382128295
:103DB00088EE93E0A0E0B0E084839583A683B78388
:103DC00026E131E03183208325EC30E035872487FC
:103DD00024EC30E03787268720EC30E0318B208BD5
:103DE00021EC30E0338B228B22EC30E0358B248BBE
:103DF00026EC30E0378B268B118E128E138E148EAC
:103E0000EDE0F3E01382128284839583A683B78367
:103E100088E291E09183808367E371E080ED93E035
:103E20000E94061867E371E08AEC93E00E9406188E
:103E300067E371E084EC93E00E94061867E371E0A9
:103E40008EEB93E00E94061867E371E088EB93E045
:103E50000E94061867E371E082EB93E00E94061867
:103E600067E371E08CEA93E00E94061867E371E073
:103E700086EA93E00E94061867E371E080EA93E027
:103E80000E940618E9E1F3E085E0DF011D928A95C2
:103E9000E9F7158216821782108680E680939703D1
:103EA00080E498E7ADE7B1E08093860390938703C1
:103EB000A0938803B0938903109283031092820326
:103EC0001092850310928403109296030895CF9365
:103ED000DF93CDB7DEB760970FB6F894DEBF0FBEA5
:103EE000CDBF789484B5826084BD84B5816084BD83
:103EF00085B5826085BD85B5816085BD80916E0088
:103F0000816080936E0010928100809181008260B8
:103F100080938100809181008160809381008091F5
:103F200080008160809380008091B10084608093E4
:103F3000B1008091B00081608093B00080917A00E0
:103F4000846080937A0080917A00826080937A0006
:103F500080917A00816080937A0080917A008068F5
:103F600080937A001092C1001092F5011092F40132
:103F700060E082E00E94B50A60E083E00E94B50A3A
:103F800060E084E00E94B50A61E08DE00E94B50A1D
:103F900061E089E00E94B50A61E08AE00E94B50A0A
:103FA00061E08BE00E94B50A61E08CE00E94B50AF6
:103FB00061E088E00E94B50A60E087E00E94B50AEF
:103FC000E0918002F091810282E08083E0917C02A6
:103FD000F0917D021082E0917E02F0917F0280E1FB
:103FE000808310928802E0918402F091850286E03D
:103FF0008083E0918202F0918302808180618083DE
:10400000E0918202F0918302808188608083E09158
:104010008202F0918302808180688083E091820235
:10402000F091830280818F7D808384E090E0A0E026
:10403000B0E08093740290937502A0937602B093DF
:1040400077026EED71E08EE190E00E941B1080918E
:10405000DE019091DF018436910509F401C380EA05
:1040600096E8A1E0B0E080936C0290936D02A0937B
:104070006E02B0936F020E94461284E090E090932B
:10408000DF018093DE016EED71E088E290E00E9436
:10409000221284E690E09093DF018093DE016EEDC2
:1040A00071E08EE190E00E94221281E090E0909316
:1040B000DF018093DE016EED71E082E390E00E940B
:1040C00022120E94DE100E94600D0E942F1082E1D9
:1040D0000E94AE0E682F606882E10E94130D10925C
:1040E000F7011092F60110924502109267020E94A9
:1040F000650B85EE98E09093E3018093E20186EEF4
:1041000098E09093E1018093E0018091970391E022
:10411000909344028093660281E00E94A40B811177
:1041200000C180E00E94AE0E90E0880F892F881FAA
:10413000990B0197B1F362E987EB0E94130D80E4BC
:1041400098E7ADE7B1E08093860390938703A0934F
:104150008803B093890360E070E0CB010E944A16A7
:1041600060E880E10E94130D60E881E10E94130D78
:1041700060E882E10E94130D60E883E10E94130D64
:1041800060E884E10E94130D60E885E10E94130D50
:1041900060E886E10E94130D60E887E10E94130D3C
:1041A0006CE080E10E94130D6CE081E10E94130D30
:1041B0006CE082E10E94130D6CE083E10E94130D1C
:1041C0006CE084E10E94130D6CE085E10E94130D08
:1041D0006CE086E10E94130D6CE087E10E94130DF4
:1041E00010E000E020E030E24FE550EA62E170E0EC
:1041F00080E090E00E94521301E010E020E030E205
:104200004FE550EA62E170E080E090E00E945213D6
:10421000109223031092220310922503109224037C
:10422000109227031092260310922903109228035C
:1042300010922B0310922A0310922D0310922C033C
:1042400081E090E090932F0380932E0390933103AD
:104250008093300370E060E090E080E00E94DC0F2B
:1042600070E060E081E090E00E94DC0F70E060E0D0
:1042700082E090E00E94DC0F70E060E083E090E07C
:104280000E94DC0F70E060E084E090E00E94DC0FB0
:1042900070E060E085E090E00E94DC0F61E070E09B
:1042A00086E090E00E94DC0F61E070E087E090E043
:1042B0000E94DC0F60E082EA0E94130D60E083EA56
:1042C0000E94130D60E084EA0E94130D60E281EB0E
:1042D0000E94130D60E881EB0E94130D02E313E0CE
:1042E0001A830983A8E9CA2EA3E0DA2E10E000E0C1
:1042F000E981FA811082118212821382148215825E
:10430000168217823896FA83E98360E0C8010E941A
:10431000970FF60111926F010F5F1F4F08301105C3
:1043200039F760916C0270916D0280916E029091EC
:104330006F020E944A1610E000E020E030E24FE5F4
:1043400050EA62E170E080E090E00E94521380E168
:104350000E94AE0E682F636080E10E94130D81E120
:104360000E94AE0E682F6C7F81E10E94130D83E0E6
:104370000E945E0A892B09F088C160E08CE00E94EF
:10438000870A60E08BE00E94870A60E08AE00E9472
:10439000870A60E089E00E94870A61E089E00E9464
:1043A000870A61E08CE00E94870A64E670E080E0A2
:1043B00090E00E940B0B60E089E00E94870A60E0B9
:1043C0008CE00E94870A64E670E080E090E00E9442
:1043D0000B0B61E089E00E94870A61E08CE00E949B
:1043E000870A64E670E080E090E00E940B0B60E0DA
:1043F00089E00E94870A60E08CE00E94870A64E6F8
:1044000070E080E090E00E940B0B61E089E00E9488
:10441000870A61E08CE00E94870A64E670E080E031
:1044200090E00E940B0B60E089E00E94870A60E048
:104430008CE00E94870A64E670E080E090E00E94D1
:104440000B0B61E089E00E94870A61E08CE00E942A
:10445000870A64E670E080E090E00E940B0B60E069
:1044600089E00E94870A60E08CE00E94870A64E687
:1044700070E080E090E00E940B0B61E089E00E9418
:10448000870A61E08CE00E94870A0E94FF0F82E0A9
:104490000E945E0A9093F3018093F201892B09F048
:1044A00041C062E370E080E090E00E940B0B82E08C
:1044B0000E945E0A9093F3018093F201892B91F59B
:1044C00060916C0270916D0280916E0290916F020A
:1044D000645671098109910960936C0270936D02B1
:1044E00080936E0290936F020E944A1602E010E0E1
:1044F00020E031EE45EF55E060E070E080E090E0D4
:104500000E941C1482E10E94AE0E682F6C7F82E133
:104510000E94130D82E10E94AE0E682F6F7782E138
:104520000E94130D83E00E945E0A9093F101809334
:10453000F001892B09F041C062E370E080E090E077
:104540000E940B0B83E00E945E0A9093F10180931E
:10455000F001892B91F560916C0270916D02809150
:104560006E0290916F026C597F4F8F4F9F4F6093F7
:104570006C0270936D0280936E0290936F020E94A2
:104580004A1602E010E020E031EE45EF55E060E031
:1045900070E080E090E00E941C1482E10E94AE0E68
:1045A000682F6C7F82E10E94130D82E10E94AE0EA3
:1045B000682F6F7782E10E94130D84E00E945E0AEB
:1045C0009093EB018093EA01892B09F060CF62E3BD
:1045D00070E080E090E00E940B0B84E00E945E0A95
:1045E0009093EB018093EA01892B09F050CF0E9450
:1045F000461261E08DE00E94870A6AEF70E080E079
:1046000090E00E940B0B60E08DE00E94870A6AEF49
:1046100070E080E090E00E940B0B61E08DE00E9472
:10462000870A6AEF70E080E090E00E940B0B60E088
:104630008DE00E94870A6AEF70E080E090E00E94BF
:104640000B0B61E08DE00E94870A6AEF70E080E06A
:1046500090E00E940B0B60E08DE00E94870A17CF6C
:104660006EED71E08EE190E00E941B100E94FF0F42
:104670006CEE71E088E290E00E941B1064EE71E045
:1046800082E390E00E941B101CCD1092800081E01C
:104690008093810081E88093810080B7846080BF2F
:1046A00060E087E00E94B50A60E088E00E94870A27
:1046B0000E942F1022242394312CFF24F39480E7AE
:1046C00092E00E948609181619066CF53092F501E1
:1046D0002092F4016091000170910101809102012A
:1046E0009091030124E630E040E050E00E94122A5D
:1046F00001E010E00E941C1461E081E090E00E9463
:10470000970F60E089E00E94870A61E08AE00E94DA
:10471000870A61E08BE00E94870A60E08CE00E94DB
:10472000870A0E949B1882E00E945E0A9A8389830E
:104730009093F3018093F20183E00E945E0A9093CC
:10474000F1018093F00109811A81012B09F070C2F7
:10475000892B09F032C28091EE019091EF01892BF3
:1047600009F02BC28091F4019091F501892B09F099
:1047700024C264E670E080E090E00E940B0B82E0CF
:104780000E945E0A9A8389839093F3018093F201D9
:1047900083E00E945E0A9093F1018093F001098109
:1047A0001A81012B09F044C2892B09F006C261E08D
:1047B0008DE00E94870A64EE71E082E390E00E943F
:1047C0001B1060E089E00E94870A60E08AE00E9496
:1047D000870A60E08BE00E94870A60E08CE00E941C
:1047E000870A8091E4019091E5010197E1F561E08C
:1047F00089E00E94870A6AEF70E080E090E00E9402
:104800000B0B60E089E00E94870A6AEF70E080E0AD
:1048100090E00E940B0B61E089E00E94870A6AEF3A
:1048200070E080E090E00E940B0B60E089E00E9465
:10483000870A6AEF70E080E090E00E940B0B61E075
:1048400089E00E94870A6AEF70E080E090E00E94B1
:104850000B0B60E089E00E94870A6AEF70E080E05D
:1048600090E00E940B0B8091E4019091E50102978A
:10487000E1F561E08AE00E94870A6AEF70E080E07B
:1048800090E00E940B0B60E08AE00E94870A6AEFCA
:1048900070E080E090E00E940B0B61E08AE00E94F3
:1048A000870A6AEF70E080E090E00E940B0B60E006
:1048B0008AE00E94870A6AEF70E080E090E00E9440
:1048C0000B0B61E08AE00E94870A6AEF70E080E0EB
:1048D00090E00E940B0B60E08AE00E94870A6AEF7A
:1048E00070E080E090E00E940B0B8091E4019091D9
:1048F000E5010397E1F561E08BE00E94870A6AEF2A
:1049000070E080E090E00E940B0B60E08BE00E9482
:10491000870A6AEF70E080E090E00E940B0B61E094
:104920008BE00E94870A6AEF70E080E090E00E94CE
:104930000B0B60E08BE00E94870A6AEF70E080E07A
:1049400090E00E940B0B61E08BE00E94870A6AEF07
:1049500070E080E090E00E940B0B60E08BE00E9432
:10496000870A6AEF70E080E090E00E940B0B809174
:10497000E4019091E5010497E1F561E08CE00E948B
:10498000870A6AEF70E080E090E00E940B0B60E025
:104990008CE00E94870A6AEF70E080E090E00E945D
:1049A0000B0B61E08CE00E94870A6AEF70E080E008
:1049B00090E00E940B0B60E08CE00E94870A6AEF97
:1049C00070E080E090E00E940B0B61E08CE00E94C0
:1049D000870A6AEF70E080E090E00E940B0B60E0D5
:1049E0008CE00E94870A6AEF70E080E090E00E940D
:1049F0000B0B8091E4019091E501019781F461E056
:104A000089E00E94870A60E08AE00E94870A60E0ED
:104A10008BE00E94870A60E08CE00E94870A809108
:104A2000E4019091E501029781F461E08AE00E943F
:104A3000870A60E089E00E94870A60E08BE00E94BC
:104A4000870A60E08CE00E94870A8091E4019091DF
:104A5000E501039781F461E08BE00E94870A60E042
:104A600089E00E94870A60E08AE00E94870A60E08D
:104A70008CE00E94870A8091E4019091E5010497FF
:104A800081F460E08AE00E94870A60E089E00E9489
:104A9000870A60E08BE00E94870A61E08CE00E9458
:104AA000870A82E00E945E0A8C019093F301809352
:104AB000F20183E00E945E0A9A8389839093F10158
:104AC0008093F001012B21F5019709F04AC064E6BB
:104AD00070E080E090E00E940B0B82E00E945E0A92
:104AE0009093F3018093F201892B91F48091E4017A
:104AF0009091E50101979093E5018093E4011816E8
:104B000019067CF124E030E03093E5012093E401C4
:104B10000091F2011091F3010130110511F5498165
:104B20005A81452BF1F464E670E080E090E00E9449
:104B30000B0B83E00E945E0A9093F1018093F001D9
:104B4000892B79F48091E4019091E501019690938D
:104B5000E5018093E401059724F01093E5010093AB
:104B6000E40184E00E945E0A9093EF018093EE01DD
:104B7000892B09F03ECF64E670E080E090E00E946F
:104B80000B0B84E00E945E0A9093EF018093EE018C
:104B9000892B09F02ECF60E08DE00E94870A64EE39
:104BA00071E082E390E00E9422120E94DE10809168
:104BB000F2019091F301892BD9F58091F001909148
:104BC000F1010197A9F58091EE019091EF01892BF8
:104BD00079F58091F4019091F501892B49F562E313
:104BE00070E080E090E00E940B0B82E00E945E0A81
:104BF0009093F3018093F201892BD1F48091EC0121
:104C00009091ED0101979093ED018093EC011816BE
:104C1000190634F064E070E07093ED016093EC01EC
:104C20006CEE71E088E290E00E9422120E942F1048
:104C300083E00E945E0A9093F1018093F00100915D
:104C4000F2011091F30101301105A1F5892B91F5C5
:104C50008091EE019091EF01892B61F58091F40133
:104C60009091F501892B31F562E370E080E090E0EE
:104C70000E940B0B83E00E945E0A9093F1018093E7
:104C8000F001892BB9F48091EC019091ED0101962E
:104C90009093ED018093EC01059724F01093ED01C2
:104CA0000093EC016CEE71E088E290E00E94221229
:104CB0000E942F1084E00E945E0A9093EB01809383
:104CC000EA01892B09F063C08091EE019091EF0118
:104CD000892B09F05CC08091F4019091F501892B3A
:104CE00009F055C062E370E080E090E00E940B0B99
:104CF00084E00E945E0A9093EB018093EA01892B85
:104D000009F045C00E942F1060E088E00E94870AE9
:104D100060E081E090E00E94970F84E00E945E0ACC
:104D20009A8389839093EB018093EA0161E08DE09F
:104D30000E94870A6091E6017091E7018091E80185
:104D40009091E90124E630E040E050E00E94122A10
:104D500010E000E00E941C1461E090E080E00E94FE
:104D6000970F3092EF012092EE0129813A81213094
:104D7000310599F660E08DE00E94870A60E090E0DE
:104D800080E00E94970F1092EF011092EE011A82BC
:104D9000198210928500109284008AE090E000B69B
:104DA00005FE06C0B09BFBCF0197F6BA0097B9F796
:104DB00000B605FC3CC0B09BFBCF0197F6BA1816B5
:104DC0001906B4F360E08DE00E94870A60E090E08D
:104DD00080E00E94970F6091000170910101809125
:104DE00002019091030124E630E040E050E00E948F
:104DF000122A01E010E00E941C1461E081E090E0C2
:104E00000E94970F1092EF011092EE0161E088E08E
:104E10000E94870A20E030E0232B09F450CC0E9446
:104E20009209882309F449CC0E94000046CC181648
:104E3000190644F6109285001092840000B605FE13
:104E400009C0B09BFBCFF6BA00B605FE03C0B09B0D
:104E5000FBCFF6BA809186009091870030E020E089
:104E600000B605FC08C0B09BFBCF2F5F3F4FF6BAE2
:104E700023303105A9F700B605FE08C0B09BFBCF73
:104E80002F5F3F4FF6BA26303105ACF340908600D5
:104E90005090870018861F8200B605FC0CC0B09B9E
:104EA000FBCF0F8118850F5F1F4F18870F83F6BA4E
:104EB0000330110589F700B605FE0CC0B09BFBCF8F
:104EC0000F8118850F5F1F4F18870F83F6BA0630C2
:104ED00011058CF3809086009090870010E000E030
:104EE00000B605FC08C0B09BFBCF0F5F1F4FF6BAA2
:104EF00003301105A9F700B605FE08C0B09BFBCF33
:104F00000F5F1F4FF6BA06301105ACF3C090860054
:104F1000D09087008C149D0409F4C6C0712C612CBC
:104F2000B12CA12C032E000C440B550BA9013327E7
:104F30002227240D351D461D571D281B390B4109FD
:104F4000510960E070E18EE59FE50E949B292B836B
:104F50003C834D835E836F8178859B01770F440B83
:104F6000550BA90133272227280D391D4A1D5B1D2A
:104F7000241935094609570960E070E18EE59FE57F
:104F80000E949B294B805C806D807E80420E531E68
:104F9000641E751E012E000C220B330B9801112785
:104FA00000270C0D1D1D211D311DA9019801281977
:104FB00039094A095B0960E070E18EE59FE50E94CE
:104FC0009B29C301B201620F731F841F951F23E049
:104FD00030E040E050E00E94792949015A01D501B2
:104FE000C40180519742A109B109803E9349A44070
:104FF000B10508F0E7CE09811A81012BE1F4309266
:10500000EF012092EE0160E088E00E94870A61E0F3
:105010008DE00E94870A6AE070E080E090E00E94E4
:105020000B0B60E081E090E00E94970F61E090E060
:1050300080E00E94970F2091000130910101409182
:10504000020150910301A4E6B0E00E942829DC018E
:10505000CB01880D991DAA1DBB1D8C019D0140E04F
:1050600050E0BA0189871A87AB873C874D875E87F6
:105070006F87788B10E000E029853A854B855C8549
:1050800060E070E080E090E00E941C1480E792E015
:105090000E9486091816190614F40E949B1801E054
:1050A00010E01A83098375CE88E8882E83E1982E54
:1050B000A12CB12C94CF80EA93E00E94851686EA59
:1050C00093E00E9485168CEA93E00E94851682EB9D
:1050D00093E00E94851688EB93E00E9485168EEB84
:1050E00093E00E94851684EC93E00E9485168AEC7A
:1050F00093E00E94851680ED93E00C9485161F9333
:10510000FC0199278827BC01E89411911032E9F33A
:10511000193010F01E30C8F31B3251F01D3249F423
:10512000689406C00E94B128610F711D811D911DF8
:10513000119110531A30B0F33EF49095809570950C
:1051400061957F4F8F4F9F4F1F910895BB274A3026
:1051500031F4992322F4BDE2909581959F4F0C94F0
:10516000E928592F482F372F262F660F771F881FC2
:10517000991F660F771F881F991F620F731F841F67
:10518000951F660F771F881F991F0895BB27FA0187
:10519000A62F6217710581059105330B30FB66F070
:1051A000AA27660F771F881F991FAA1FA21710F042
:1051B000A21B63953850A9F7A05DAA3308F0A95D3A
:1051C000A19336F7B111B1931082CA010C94022950
:1051D000BB27FB015527AA27880F991FAA1FA417D1
:1051E00010F0A41B83955051B9F7A05DAA3308F0C5
:1051F000A95DA193009779F7B111B1931192CB01F9
:105200000C940229DC01FC01672F71917723E1F7EF
:10521000329704C07C916D9370836291AE17BF0783
:10522000C8F30895F999FECF92BD81BDF89A9927E8
:1052300080B50895262FF999FECF1FBA92BD81BD82
:1052400020BD0FB6F894FA9AF99A0FBE0196089508
:105250000E946A29A59F900DB49F900DA49F800D78
:10526000911D112408952F923F924F925F926F9259
:105270007F928F929F92AF92BF92CF92DF92EF92E6
:10528000FF920F931F93CF93DF93CDB7DEB7CA1B67
:10529000DB0B0FB6F894DEBF0FBECDBF09942A8892
:1052A000398848885F846E847D848C849B84AA843A
:1052B000B984C884DF80EE80FD800C811B81AA81C7
:1052C000B981CE0FD11D0FB6F894DEBF0FBECDBF92
:1052D000ED010895A29FB001B39FC001A39F700D7F
:1052E000811D1124911DB29F700D811D1124911DEE
:1052F0000895A1E21A2EAA1BBB1BFD010DC0AA1F17
:10530000BB1FEE1FFF1FA217B307E407F50720F02E
:10531000A21BB30BE40BF50B661F771F881F991FA9
:105320001A9469F760957095809590959B01AC01F2
:10533000BD01CF010895052E97FB1EF400940E9435
:10534000B22957FD07D00E94792907FC03D04EF4FB
:105350000C94B22950954095309521953F4F4F4F71
:105360005F4F089590958095709561957F4F8F4F11
:105370009F4F0895DF93CF931F930F939A9DF02D26
:10538000219FF00D8B9DF00D8A9DE02DF10D039F67
:10539000F00D029FE00DF11D4E9DE00DF11D5E9D93
:1053A000F00D4F9DF00D7F936F93BF92AF925F937F
:1053B0004F93D5010E946A298B01AC01D7010E944D
:1053C0006A29EB01E80FF91FD6010E94092A2F91E3
:1053D0003F91D6010E946A29C60FD71FE81FF91F07
:1053E000AF91BF910E94092A2F913F910E946A2993
:1053F000C60FD71FE81FF91FD6010E946A29E60FC2
:10540000F71F9801BE01CF010F911F91CF91DF913E
:1054100008950E946A29460F571FC81FD91F08F414
:1054200031960895E894DF93CF93FC01DB010E944D
:105430006A297F936F93E9019A01AC01BF93AF93FF
:105440003F932F93DF010E946A2926F46C1B7D0B8A
:10545000820B930B9E01EB01FC010E94092AAF9184
:10546000BF912F913F910E94092ABE01CF01F901FE
:105470002F913F91CF91DF910895689401C0E894F6
:10548000F92FF12B12F00C94712AA0E0B0E0EBE4BC
:10549000FAE20C943929092E059422F40E94CD2AAF
:1054A000112392F4F0E80F26FFEFE094F0940095BA
:1054B0001095B094C094D094A194BF0ACF0ADF0A8B
:1054C000EF0AFF0A0F0B1F0B0E947C2A07FC0E94A9
:1054D000CD2ACDB7DEB7ECE00C945529689401C015
:1054E000E8948F929F92CF93DF930E947C2ADF9162
:1054F000CF919F908F90089588249924F401E4011E
:10550000B0E49F93AA279A158B049C04ED05FE0531
:10551000CF05D007A10798F4AD2FDC2FCF2FFE2F9A
:10552000E92D982C892E982F872F762F652F542FB1
:10553000432F322F2227B85031F7BF9127C01B2E9F
:10554000BF91BB27220F331F441F551F661F771FB4
:10555000881F991F881C991CEE1FFF1FCC1FDD1F81
:10556000AA1FBB1F8A149B04EC05FD05CE05DF05B1
:10557000A007B10748F08A189B08EC09FD09CE097D
:10558000DF09A00BB10B21601A94E1F62EF494010F
:10559000AF01BE01CD01000C089560957095809516
:1055A000909530954095509521953F4F4F4F5F4FC7
:1055B0006F4F7F4F8F4F9F4F0895002E083090F010
:1055C000982F872F762F652F542F432F322F222786
:1055D0000850F4CF220F331F441F551F661F771F3B
:1055E000881F991F0A95B2F7002D089597FD109412
:1055F000002E083098F00850232F342F452F562FB7
:10560000672F782F892F912DF4CF15949795879533
:105610007795679557954795379527950A95AAF7F2
:105620001124002D08952A0D3B1D4C1D5D1D6E1D7E
:105630007F1D801F911F08950024A7FD00942A0F4D
:10564000301D401D501D601D701D801D901D089552
:105650000024A7FD00942A17300540055005600579
:105660007005800590050895EE0FFF1F0590F491D9
:10567000E02D09940F931F93CF93DF938230910510
:1056800010F482E090E0E091D803F091D90330E08B
:1056900020E0B0E0A0E0309799F42115310509F43D
:1056A0004AC0281B390B24303105D8F58A819B81EB
:1056B0006115710589F1FB0193838283FE0111C09D
:1056C000408151810281138148175907E0F0481742
:1056D000590799F4109761F012960C93129713964C
:1056E0001C933296CF01DF91CF911F910F910895B6
:1056F0000093D8031093D903F4CF2115310551F04D
:105700004217530738F0A901DB019A01BD01DF01FF
:10571000F801C1CFEF01F9CF9093D9038093D8035B
:10572000CDCFFE01E20FF31F8193919322503109F7
:1057300039832883D7CF2091D6033091D703232BE9
:1057400041F420910601309107013093D703209353
:10575000D60320910401309105012115310541F452
:105760002DB73EB74091080150910901241B350B1C
:10577000E091D603F091D703E217F307A0F42E1BB4
:105780003F0B2817390778F0AC014E5F5F4F2417A5
:10579000350748F04E0F5F1F5093D7034093D60351
:1057A000819391939FCFF0E0E0E09CCFCF93DF9384
:1057B0000097E9F0FC01329713821282A091D8037E
:1057C000B091D903ED0130E020E01097A1F42081E1
:1057D0003181820F931F2091D6033091D703281770
:1057E000390709F061C0F093D703E093D603DF9146
:1057F000CF910895EA01CE17DF07E8F54A815B8172
:105800009E0141155105B1F7E901FB83EA834991F6
:105810005991C40FD51FEC17FD0761F48081918168
:105820000296840F951FE901998388838281938171
:105830009B838A83F0E0E0E012968D919C91139710
:105840000097B9F52D913C911197CD010296820FE9
:10585000931F2091D6033091D7032817390739F6C3
:10586000309751F51092D9031092D803B093D70313
:10587000A093D603BCCFD383C28340815181840FD0
:10588000951FC817D90761F44E5F5F4F88819981D2
:10589000480F591F518340838A819B819383828360
:1058A0002115310509F0B0CFF093D903E093D80367
:1058B0009ECFFD01DC01C0CF13821282D7CFB0E0B2
:1058C000A0E0E5E6FCE20C9435298C01009751F448
:1058D000CB010E943A2B8C01C801CDB7DEB7E0E1C5
:1058E0000C945129FC01E60FF71F9C01225031094D
:1058F000E217F30708F49DC0D901CD91DC9111970F
:10590000C617D70798F0C530D10530F3CE010497FC
:105910008617970708F3C61BD70B2297C193D1931D
:105920006D937C93CF010E94D62BD6CF5B01AC1A2E
:10593000BD0A4C018C0E9D1EA091D803B091D903D5
:10594000512C412CF12CE12C109731F58091D6038C
:105950009091D7038815990509F05CC04616570643
:1059600008F058C08091040190910501009741F41E
:105970008DB79EB74091080150910901841B950B8A
:10598000E817F90708F055C0F093D703E093D60362
:10599000F90171836083A0CF8D919C91119712962C
:1059A0006C90129713967C901397A815B90559F52A
:1059B0006C0142E0C40ED11CCA14DB0420F1AC011E
:1059C0004A195B09DA011296159780F06282738298
:1059D00051834083D9016D937C93E114F10471F0FC
:1059E000D7011396FC93EE93129776CF22968C0FE5
:1059F0009D1FF90191838083F301EFCFF093D903C9
:105A0000E093D80369CF4816590608F42C017D01AC
:105A1000D3019ACFCB010E943A2B7C01009749F029
:105A2000AE01B8010E94242DC8010E94D62B870127
:105A300053CF10E000E050CF9111089581568A5164
:105A400008F4805285580895FB01DC0102C00190E2
:105A50000D9241505040D8F708956817790768F4BF
:105A6000FB01DC01E40FF51FA40FB51F02C002907B
:105A70000E9241505040D8F708950C94242DFB010C
:105A8000DC018D91019080190110D9F3990B0895D3
:105A9000FB01DC0101900D920020E1F70895FB016C
:105AA00051915523A9F0BF01DC014D9145174111DA
:105AB000E1F759F4CD010190002049F04D914015D6
:105AC0004111C9F3FB014111EFCF81E090E0019753
:105AD000089510E0C2E6D0E004C0FE010E94342B1D
